:060000000A128A1100291A
:10000800F000030EF1000B197E210B188521710EEB
:080018008300F00E700E0900D8
:1002000022210E2115213A21031383122008A10077
:1002100045215A21A301A401A50106290313831630
:100220000F140F178F160F12080003138316811275
:10023000811101158114011403138312D930810037
:100240000B11080003178316880189010313831615
:100250008701F8308800FF30860081130330950055
:10026000031383128701081088100811A201A1014D
:10027000A0010800031383161614961403138312A7
:100280008B178B160B110B10080064302102031C16
:100290004C29A100A30A45290A302102031C532935
:1002A000A100A40A4C2901302102031C0800A1006E
:1002B000A50A532923080022A60024080022A7002B
:1002C00025080022A8000800081088100811A218AC
:1002D0007829221872296C2926088700081422140C
:1002E000A21008002708870088142210A214080012
:1002F0002808870008152210A21008000313831293
:10030000D93081000B1164210800061CA00A861C4C
:06031000A0030B10080021
:100400008A018A140F3982073F3406345B344F3433
:1004100066346D347D3407347F346F3477347C3404
:0804200039345E347934713483
:04400E00C430FF3F7C
:00000001FF
