:060000000A128A1100291A
:10000800F000030EF1000B197F210B188621710EE9
:080018008300F00E700E0900D8
:1002000022210E2115213B21031383120508A00092
:1002100046215B21A101A201A30106290313831634
:100220000F140F178F160F12080003138316811275
:10023000811101158114011403138312D930810037
:100240000B11080003178316880189010313831615
:1002500085018701F8308800FF3086008113033064
:100260009500031383128701081088100811A40158
:10027000A0018501080003138316161496140313B6
:1002800083128B178B160B110B10080064302002A1
:10029000031C4D29A000A10A46290A302002031C94
:1002A0005429A000A20A4D2901302002031C080095
:1002B000A000A30A542921080022A5002208002238
:1002C000A60023080022A7000800081088100811C3
:1002D000A4187929241873296D2925088700081482
:1002E0002414A41008002608870088142410A414DD
:1002F00008002708870008152410A410080003131D
:100300008312D93081000B1165210800061C850A73
:08031000861C85030B10080098
:100400008A018A140F3982073F3406345B344F3433
:1004100066346D347D3407347F346F3477347C3404
:0804200039345E347934713483
:04400E00C430FF3F7C
:00000001FF
